:020000040800F2
:10000000000003207509000859080008610800086D
:10001000690800087108000879080008000000005D
:10002000000000000000000000000000810800083F
:100030008F080008000000009D080008AB080008B9
:10004000CD090008CD090008CD090008CD09000838
:10005000CD090008CD090008CD090008CD09000828
:10006000CD090008CD090008CD090008CD09000818
:10007000CD090008CD090008CD090008CD09000808
:10008000CD090008CD090008CD090008CD090008F8
:10009000CD090008CD090008CD090008CD090008E8
:1000A000CD090008CD090008CD090008CD090008D8
:1000B000CD090008CD090008CD090008CD090008C8
:1000C000CD090008CD090008CD090008CD090008B8
:1000D000CD090008CD090008CD090008CD090008A8
:1000E000CD090008CD090008CD090008CD09000898
:1000F000CD090008CD090008CD090008CD09000888
:10010000CD090008CD090008CD090008CD09000877
:10011000CD090008CD090008CD090008CD09000867
:10012000CD090008CD090008CD090008CD09000857
:0C013000CD090008CD090008CD09000829
:10013C0010B5054C237833B9044B13B10448AFF315
:10014C0000800123237010BD30000020000000004F
:10015C00AC44000808B5034B1BB103490348AFF38B
:10016C00008008BD0000000034000020AC440008F2
:10017C0053B94AB9002908BF00281CBF4FF0FF3102
:10018C004FF0FF3000F06AB9ADF1080C6DE904CE08
:10019C0000F006F8DDF804E0DDE9022304B0704756
:1001AC002DE9F047089D0C46002B4ED194468C450A
:1001BC008646B2FA82F262D94AB1C2F1200391406A
:1001CC0020FA03F30CFA02FC194300FA02FE4FEA80
:1001DC001C471FFA8CF6B1FBF7F44FEA1E4307FBE2
:1001EC00141143EA014304FB06F199420AD91CEBB2
:1001FC00030304F1FF3080F01281994240F20F8129
:10020C00023C6344591A1FFA8EF3B1FBF7F007FB5B
:10021C00101143EA014300FB06F69E420AD91CEB7F
:10022C00030300F1FF3180F0FC809E4240F2F98024
:10023C00634402389B1B40EA044000211DB1D340AB
:10024C000022C5E90032BDE8F0878B4205D90DB11B
:10025C00C5E9000100210846F5E7B3FA83F100294E
:10026C0046D1A34202D39042C0F0F080861A64EBD0
:10027C0003030120002DE6D0C5E90063E3E7002A63
:10028C0040F09080A1EB0C044FEA1C481FFA8CF74D
:10029C000121B4FBF8F64FEA1E4308FB164443EA6F
:1002AC00044307FB06F0984208D91CEB030306F144
:1002BC00FF3402D2984200F2CD8026461C1A1FFA57
:1002CC008EF3B4FBF8F008FB104443EA044300FB44
:1002DC0007F79F4208D91CEB030300F1FF3402D24D
:1002EC009F4200F2B0802046DB1B40EA0640A5E7A7
:1002FC00C1F120068B4022FA06F71F4320FA06FCB8
:10030C0004FA01F343EA0C03F44000FA01F8380C48
:10031C004FEA1349B4FBF0FE1FFA87FC00FB1E44A6
:10032C0049EA04440EFB0CF9A14502FA01F20AD980
:10033C003C190EF1FF3A80F08480A14540F2818097
:10034C00AEF1020E3C44A4EB09041FFA83F9B4FB92
:10035C00F0F300FB134449EA044403FB0CFCA445F2
:10036C0007D93C1903F1FF3067D2A44565D9023B8C
:10037C003C4443EA0E40A0FB0293A4EB0C049C42C9
:10038C00CE469C4651D34ED055B1B8EB0E0364EB20
:10039C000C0404FA06F6CB401E43CC40C5E90064BD
:1003AC00002150E7C2F1200320FA03F10CFA02FC01
:1003BC0024FA03F394400C434FEA1C4800FA02FE63
:1003CC001FFA8CF7B3FBF8F008FB1031230C43EA4F
:1003DC00014300FB07F1994208D91CEB030300F120
:1003EC00FF362CD299422AD9023863445B1AA4B244
:1003FC00B3FBF8F108FB113344EA034401FB07F3A8
:10040C00A34208D91CEB040401F1FF3613D2A3421A
:10041C0011D902396444E41A41EA004139E704462F
:10042C00F0E6084606E7C845AED2B9EB020E63EB20
:10043C00070C0138A8E73146EDE7034699E730464B
:10044C00D4E7D6467FE7634402384DE70646234699
:10045C0008460FE7023E634430E700BF704700BF19
:10046C0080B485B000AF78604FF0B043DA6C4FF0D9
:10047C00B0417B681343CB644FF0B043DA6C7B68BC
:10048C001340FB60FB6800BF1437BD465DF8047B6E
:10049C007047000080B500AF00F002FC00F064F87B
:1004AC0000F0C6F800F022F900F0E0F8002000F0AF
:1004BC00BBFA012000F0B8FA022000F0B5FA0121D5
:1004CC00002000F0EBFA0121012000F0E7FA0121F5
:1004DC00022000F0E3FA1F4B4FF4E1321A601D4B7F
:1004EC0000225A601B4B00221A811A4B00225A819F
:1004FC00184B00229A811749002000F03FFB03465D
:10050C00002B01D000F01AF94FF0FF3301221249F1
:10051C00124801F0EFF800224FF48071104800F0FF
:10052C00E9FE41F2883000F041FC01224FF4807169
:10053C000B4800F0DFFE084B1B780133DAB2094B95
:10054C001A704FF0FF3301220649044800F085FF72
:10055C0000BFD9E7500000204C00002060000020B4
:10056C00000400484D00002080B59AB000AF07F1A0
:10057C00200348220021184603F065FF3B1D002292
:10058C001A605A609A60DA601A615A619A61274B54
:10059C001B6823F4C063254A43F400731360234B98
:1005AC001B6803F4C0633B603B6803233B624FF45E
:1005BC0080337B624FF48073FB6240233B630223E6
:1005CC00FB6403233B6510237B650823BB654FF459
:1005DC000033FB654FF000537B664FF000733B66B6
:1005EC0007F12003184602F035F80346002B01D022
:1005FC0000F0A4F86F237B600323BB600023FB6037
:10060C0000233B6100237B618023BB610023FB61E2
:10061C003B1D0321184602F091FB0346002B01D031
:10062C0000F08CF800BF6837BD4680BD0004005850
:10063C0080B594B000AF3B4650220021184603F021
:10064C0002FF4FF400533B600023BB640023FB64A8
:10065C003B46184602F0AFFF0346002B01D000F0DA
:10066C006DF800BF5037BD4680BD000080B500AFAF
:10067C001B4B1C4A1A601A4B1B4A5A60184B2622F9
:10068C009A60174B0122DA60154B00221A61144B49
:10069C0000225A61124B00229A61114B0022DA613E
:1006AC000F4B00221A620E4800F03CFE0346002B52
:1006BC0001D000F043F80021094801F09FFB0346EC
:1006CC00002B01D000F03AF80021054801F0E1FBC5
:1006DC000346002B01D000F031F800BF80BD00BFF5
:1006EC006000002000540040B57DB11080B586B08C
:1006FC0000AF3B1D00221A605A609A60DA601A61E2
:10070C000420FFF7ADFE0220FFF7AAFE0120FFF741
:10071C00A7FE4FF4C0537B600223BB600023FB6039
:10072C0000233B610A237B613B1D19464FF090402F
:10073C0000F070FC00BF1837BD4680BD80B400AF20
:10074C0072B600BF00BFFDE780B485B000AF786023
:10075C004FF0B043DA6C4FF0B0417B681343CB647D
:10076C004FF0B043DA6C7B681340FB60FB6800BF52
:10077C001437BD465DF8047B704780B485B000AF7C
:10078C0078604FF0B0439A6D4FF0B0417B681343E3
:10079C008B654FF0B0439A6D7B681340FB60FB6830
:1007AC0000BF1437BD465DF8047B704780B400AFC2
:1007BC0000BFBD465DF8047B7047000080B59CB05F
:1007CC0000AF786007F15C0300221A605A609A60EF
:1007DC00DA601A6107F10C0350220021184603F06D
:1007EC0032FE7B681B68174A934226D10423FB60B8
:1007FC004FF44033FB6207F10C03184602F0DBFEAA
:10080C000346002B01D0FFF799FF0220FFF79CFF56
:10081C004FF44073FB6512233B6600237B66002379
:10082C00BB660423FB6607F15C031946064800F01F
:10083C00F1FB4FF40010FFF7A0FF00BF7037BD466F
:10084C0080BD00BF005400400004004880B400AFDD
:10085C0000BFFDE780B400AF00BFFDE780B400AF80
:10086C0000BFFDE780B400AF00BFFDE780B400AF70
:10087C0000BFFDE780B400AF00BFBD465DF8047B50
:10088C00704780B400AF00BFBD465DF8047B704775
:10089C0080B400AF00BFBD465DF8047B704780B5E7
:1008AC0000AF00F057FA00BF80BD000080B400AF6D
:1008BC00244BD3F88830234A43F47003C2F88830B1
:1008CC004FF0B0431B684FF0B04243F0010313608C
:1008DC004FF0B0434FF4E0229A604FF0B0431A68E7
:1008EC004FF0B041184B13400B604FF0B043D3F8AE
:1008FC0094304FF0B04223F00503C2F894304FF01F
:10090C00B043D3F898304FF0B04223F00103C2F853
:10091C0098304FF0B0430D4ADA604FF0B0430B4AB9
:10092C001A614FF0B0431B684FF0B04223F48023A0
:10093C0013604FF0B04300229A6100BFBD465DF8D2
:10094C00047B704700ED00E0FBFEF6FA0010042279
:10095C00D458C4500433C4188C42F9D37047036084
:10096C0004308842FBD370470C488546FFF79EFF46
:10097C000B480C490C4A0023FFF7EDFF0B480C49C0
:10098C000C4A0023FFF7E7FF0B480C490023FFF745
:10099C00E8FF03F061FDFFF77DFDFEE7000003209B
:1009AC000800002030000020CC4500080000032087
:1009BC0000000320F4450008300000204C0100200A
:1009CC00FEE780B485B000AF78604FF0B043DA6CCE
:1009DC004FF0B0417B681343CB644FF0B043DA6CFB
:1009EC007B681340FB60FB6800BF1437BD465DF8A5
:1009FC00047B704780B485B000AF78604FF0B04393
:100A0C001A6E4FF0B0417B6813430B664FF0B04346
:100A1C001A6E7B681340FB60FB6800BF1437BD4641
:100A2C005DF8047B7047000080B588B000AF0346CA
:100A3C00FB7107F10C0300221A605A609A60DA60AD
:100A4C001A610220FFF7BDFFFB79124A32F813300E
:100A5C00FB6001233B6100237B610223BB61FB79BB
:100A6C000D4A52F8233007F10C021146184600F0DB
:100A7C00D1FAFB79084A52F82300FB79054A32F87F
:100A8C0013300022194600F035FC00BF2037BD465C
:100A9C0080BD00BF904500080C00002080B588B0D8
:100AAC0000AF03460A46FB711346BB7107F10C03FA
:100ABC0000221A605A609A60DA601A61FB79002B86
:100ACC0003D10420FFF77DFF0CE0FB79012B03D150
:100ADC000820FFF776FF05E0FB79022B02D10820F6
:100AEC00FFF76FFFBB79002B17D1FB79204A32F847
:100AFC001330FB6000233B6101237B610223BB614C
:100B0C00FB791C4A52F8233007F10C0211461846A7
:100B1C0000F080FA012000F049F9BB79012B23D1B8
:100B2C00FB79134A32F81330FB6001237B614FF4DD
:100B3C0004133B61FB790F4A52F8233007F10C0286
:100B4C001146184600F066FAFB790B4AD35C5BB28F
:100B5C0000220F21184600F028FAFB79064AD35CD4
:100B6C005BB2184600F03BFA00BF2037BD4680BD93
:100B7C009845000818000020A045000880B584B0F6
:100B8C0000AF03463960FB710023FB60FB79012B3E
:100B9C0003D96FF00103FB6018E0FB79942202FB90
:100BAC0003F30D4A1344184600F04AF8FB799422DB
:100BBC0002FB03F3084A13443968184600F00EF898
:100BCC000346002B02D06FF0030300E0FB681846CD
:100BDC001037BD4680BD00BFB400002080B582B088
:100BEC0000AF78603960154B1A687B681A603B68F7
:100BFC001A687B685A607B680C225A613B685B8977
:100C0C001A467B681A613B685A687B689A603B6835
:100C1C001B891A467B68DA603B689B891A467B689D
:100C2C009A617B684FF40042DA61786802F06AFFDF
:100C3C00034618460837BD4680BD00BF240000207F
:100C4C0080B588B000AF78600220FFF7BAFE0220B2
:100C5C00FFF7B7FE4FF48040FFF7CCFE4023FB605C
:100C6C0002233B610223BB6101237B610723FB61F0
:100C7C0007F10C031946094800F0CCF98023FB60FE
:100C8C0002233B610723FB6107F10C031946034860
:100C9C0000F0C0F900BF2037BD4680BD00040048FD
:100CAC0080B582B000AF0023FB710C4B1B680B4A64
:100CBC0043F480731360032000F06CF9002000F003
:100CCC000FF80346002B02D00123FB7101E0FFF764
:100CDC006DFDFB7918460837BD4680BD00400058B5
:100CEC0080B584B000AF78600023FB73174B1B7882
:100CFC00002B24D002F0CEF90246144B1B78194677
:100D0C004FF47A73B3FBF1F3B2FBF3F3184600F034
:100D1C0074F90346002B0FD17B680F2B09D80022E6
:100D2C0079684FF0FF3000F040F9094A7B68136096
:100D3C0007E00123FB7304E00123FB7301E00123B3
:100D4C00FB73FB7B18461037BD4680BD2C00002082
:100D5C002800002080B400AF064B1B781A46064BC7
:100D6C001B681344044A136000BFBD465DF8047B46
:100D7C00704700BF2C0000204801002080B400AF59
:100D8C00034B1B681846BD465DF8047B704700BFDB
:100D9C004801002080B400AF034B1B681846BD46C9
:100DAC005DF8047B704700BF2800002080B584B03C
:100DBC0000AF7860FFF7E2FFB8607B68FB60FB6810
:100DCC00B3F1FF3F05D00A4B1B781A46FB6813445E
:100DDC00FB6000BFFFF7D2FF0246BB68D31AFA686C
:100DEC009A42F7D800BF00BF1037BD4680BD00BF88
:100DFC002C00002080B485B000AF78607B6803F0D5
:100E0C000703FB600C4BDB68BB60BA684FF6FF0353
:100E1C001340BB60FB681A02BB68134343F0BF630B
:100E2C0043F40033BB60044ABB68D36000BF143783
:100E3C00BD465DF8047B704700ED00E080B400AF68
:100E4C00044BDB681B0A03F007031846BD465DF82C
:100E5C00047B704700ED00E080B483B000AF034624
:100E6C00FB7197F90730002B0BDBFB7903F01F02AA
:100E7C00074997F907305B09012000FA02F241F8A3
:100E8C00232000BF0C37BD465DF8047B704700BFC4
:100E9C0000E100E080B483B000AF03463960FB7121
:100EAC0097F90730002B0ADB3B68DAB20C4997F94B
:100EBC0007301201D2B20B4483F800230AE03B68DE
:100ECC00DAB20849FB7903F00F03043B1201D2B2EA
:100EDC000B441A7600BF0C37BD465DF8047B704797
:100EEC0000E100E000ED00E080B489B000AFF860F4
:100EFC00B9607A60FB6803F00703FB61FB69C3F11F
:100F0C000703042B28BF0423BB61FB690433062BA6
:100F1C0002D9FB69033B00E000237B614FF0FF32F9
:100F2C00BB6902FA03F3DA43BB681A407B699A4047
:100F3C004FF0FF317B6901FA03F3D9437B680B4017
:100F4C00134318462437BD465DF8047B70470000F8
:100F5C0080B582B000AF78607B68013BB3F1807FD5
:100F6C0001D301230FE00A4A7B68013B53600F2138
:100F7C004FF0FF30FFF78EFF054B00229A60044BB9
:100F8C0007221A60002318460837BD4680BD00BFF3
:100F9C0010E000E080B582B000AF78607868FFF7B1
:100FAC0029FF00BF0837BD4680BD80B586B000AFB5
:100FBC000346B9607A60FB73FFF740FF78617A688B
:100FCC00B9687869FFF790FF024697F90F30114620
:100FDC001846FFF75FFF00BF1837BD4680BD80B5D0
:100FEC0082B000AF0346FB7197F907301846FFF744
:100FFC0033FF00BF0837BD4680BD80B582B000AF5F
:10100C0078607868FFF7A4FF034618460837BD469A
:10101C0080BD000080B487B000AF786039600023D9
:10102C007B614CE13B681A6801217B6901FA03F38F
:10103C001340FB60FB68002B00F03E813B685B6853
:10104C0003F00303012B05D03B685B6803F003033B
:10105C00022B30D17B689B683B617B695B00032270
:10106C0002FA03F3DB433A6913403B613B68DA68ED
:10107C007B695B0002FA03F33A6913433B617B68BB
:10108C003A699A607B685B683B6101227B6902FA72
:10109C0003F3DB433A6913403B613B685B681B0914
:1010AC0003F001027B6902FA03F33A6913433B61D3
:1010BC007B683A695A603B685B6803F00303032B57
:1010CC0017D07B68DB683B617B695B00032202FA0B
:1010DC0003F3DB433A6913403B613B689A687B69D5
:1010EC005B0002FA03F33A6913433B617B683A698C
:1010FC00DA603B685B6803F00303022B23D17B6946
:10110C00DA087B68083253F822303B617B6903F0C4
:10111C0007039B000F2202FA03F3DB433A691340E7
:10112C003B613B681A697B6903F007039B0002FA79
:10113C0003F33A6913433B617B69DA087B68083235
:10114C00396943F822107B681B683B617B695B0043
:10115C00032202FA03F3DB433A6913403B613B6819
:10116C005B6803F003027B695B0002FA03F33A69E4
:10117C0013433B617B683A691A603B685B6803F414
:10118C004033002B00F09880544A7B699B08023353
:10119C0052F823303B617B6903F003039B000F2261
:1011AC0002FA03F3DB433A6913403B617B68B3F10A
:1011BC00904F19D07B684A4A934213D07B68494AB6
:1011CC0093420DD07B68484A934207D07B68474ACC
:1011DC00934201D1042308E0072306E0032304E033
:1011EC00022302E0012300E000237A6902F00302EB
:1011FC00920093403A6913433B6138497B699B08E1
:10120C0002333A6941F82320394B1B683B61FB6878
:10121C00DB433A6913403B613B685B6803F4801322
:10122C00002B03D03A69FB6813433B61304A3B699E
:10123C0013602F4B5B683B61FB68DB433A691340DF
:10124C003B613B685B6803F40013002B03D03A69E5
:10125C00FB6813433B61264A3B695360244BD3F82C
:10126C0080303B61FB68DB433A6913403B613B6870
:10127C005B6803F48033002B03D03A69FB6813439B
:10128C003B611B4A3B69C2F88030194BD3F8843060
:10129C003B61FB68DB433A6913403B613B685B682D
:1012AC0003F40033002B03D03A69FB6813433B6112
:1012BC000F4A3B69C2F884307B6901337B613B6820
:1012CC001A687B6922FA03F3002B7FF4ABAE00BFE4
:1012DC0000BF1C37BD465DF8047B70470000014021
:1012EC000004004800080048000C004800100048AA
:1012FC000008005880B483B000AF78600B467B8048
:10130C0013467B707B78002B03D07A887B689A61BC
:10131C0002E07A887B689A6200BF0C37BD465DF8A4
:10132C00047B704780B582B000AF78607B68002B7F
:10133C0001D101238DE07B6893F84130DBB2002BA7
:10134C0006D17B68002283F840207868FFF736FAD4
:10135C007B68242283F841207B681B681A687B68B1
:10136C001B6822F001021A607B685A687B681B6854
:10137C0022F070621A617B681B689A687B681B6834
:10138C0022F400429A607B68DB68012B07D17B68F2
:10139C009A687B681B6842F400429A6006E07B689E
:1013AC009A687B681B6842F404429A607B68DB682D
:1013BC00022B08D17B681B685A687B681B6842F457
:1013CC0000625A6007E07B681B685A687B681B6880
:1013DC0022F400625A607B681B685B687A6812684A
:1013EC0043F0007343F4004353607B681B68DA6876
:1013FC007B681B6822F40042DA607B681A697B68A0
:10140C005B6942EA03017B689B691A027B681B6873
:10141C000A43DA607B68D9697B681A6A7B681B6847
:10142C000A431A607B681B681A687B681B6842F069
:10143C0001021A607B6800225A647B68202283F8C0
:10144C0041207B6800221A637B68002283F84220CB
:10145C00002318460837BD4680BD80B588B002AF62
:10146C00F860B9603B601346FB80FB6893F8413031
:10147C00DBB2202B40F03981BB68002B02D0FB88FB
:10148C00002B05D1FB684FF400725A6401232DE147
:10149C00FB6893F84030012B01D1022326E1FB6855
:1014AC00012283F84020FFF769FC7861FB68212258
:1014BC0083F84120FB68202283F84220FB6800223D
:1014CC005A64FB68BA685A62FB68FA885A85FB68EA
:1014DC0000225A63FB681B685A68FB681B6822F47D
:1014EC0000425A60FB681B6AB3F5003F11D1FB68E0
:1014FC005B6A1A78FB681B689A62FB685B6A5A1C09
:10150C00FB685A62FB685B8D9BB2013B9AB2FB682D
:10151C005A857B6900933B6800220821F86800F02B
:10152C001DFA0346002B0CD0FB681B685A68FB683D
:10153C001B6842F400425A60F86800F0EBF9012392
:10154C00D4E0FB681B680822DA61FB68DB68022BBD
:10155C001BD17B6900933B6800220821F86800F0DE
:10156C00FDF90346002B0CD0FB681B685A68FB681E
:10157C001B6842F400425A60F86800F0CBF9012372
:10158C00B4E0FB681B680822DA617B6900933B6856
:10159C0000224FF48031F86800F0E0F90346002B8C
:1015AC0030D0FB681B685A68FB681B6842F4004229
:1015BC005A60F86800F0AEF9012397E07A6939684F
:1015CC00F86800F024FA0346002B09D0FB681B686E
:1015DC005A68FB681B6842F400425A60012385E09C
:1015EC00FB685B6A1A78FB681B689A62FB685B6A2B
:1015FC005A1CFB685A62FB685B8D9BB2013B9AB22A
:10160C00FB685A85FB685B8D9BB2002BD6D17B693E
:10161C0000933B6800221021F86800F09FF9034604
:10162C00FB74FB7C002B17D0FB685B8D3B82FB684B
:10163C005B6C042B06D13B8A002B03D1FB68002288
:10164C005A6426E0FB681B685A68FB681B6842F406
:10165C0000425A60012349E0F86800F05BF9FB682E
:10166C001B681022DA617A693968F86800F016FA9A
:10167C000346002B09D0FB681B685A68FB681B6883
:10168C0042F400425A60012330E0FB681B682022C0
:10169C00DA617B6900933B6801224FF40041F868E2
:1016AC0000F05CF90346002B09D0FB681B685A68F4
:1016BC00FB681B6842F400425A60012316E0FB6889
:1016CC001B685A68FB681B6842F400425A60FB684E
:1016DC00202283F84120FB68002283F84220FB681B
:1016EC00002283F84020002300E00223184618371C
:1016FC00BD4680BD80B588B002AFF860B9603B6074
:10170C001346FB80FB6893F84130DBB2202B40F092
:10171C00FC80BB68002B02D0FB88002B05D1FB683A
:10172C004FF400725A640123F0E0FB6893F84030E8
:10173C00012B01D10223E9E0FB68012283F8402050
:10174C00FFF71CFB7861FB68222283F84120FB68C1
:10175C00202283F84220FB6800225A64FB68BA6896
:10176C005A62FB68FA885A85FB685B8D9AB2FB68F3
:10177C001A85FB6800225A63FB681B685A68FB6871
:10178C001B6822F400425A607B6900933B6800227C
:10179C000821F86800F0E2F80346002B09D0FB683A
:1017AC001B685A68FB681B6842F400425A600123AC
:1017BC00ACE0FB681B680822DA617B6900933B682C
:1017CC0001224FF48031F86800F0C8F80346002B72
:1017DC0054D0FB681B685A68FB681B6842F40042D3
:1017EC005A60012392E07A693968F86800F09AF936
:1017FC000346002B29D0FB681B685A68FB681B68E2
:10180C0042F400425A60FB681B689B6903F00403B6
:10181C00042B18D1FB681B685A6AFB685B6AD2B24E
:10182C001A70FB685B6A5A1CFB685A62FB685B8D1A
:10183C009BB2013B9AB2FB685A85FB681B8D013B3E
:10184C009AB2FB681A85012360E0FB681B685A6A30
:10185C00FB685B6AD2B21A70FB685B6A5A1CFB6845
:10186C005A62FB685B8D9BB2013B9AB2FB685A854E
:10187C00FB681B8D013B9AB2FB681A85FB685B8D7C
:10188C009BB2002BAFD17A693968F86800F006F981
:10189C000346002B09D0FB681B685A68FB681B6861
:1018AC0042F400425A60012330E0FB681B6820229E
:1018BC00DA617B6900933B6801224FF40041F868C0
:1018CC0000F04CF80346002B09D0FB681B685A68E3
:1018DC00FB681B6842F400425A60012316E0FB6867
:1018EC001B685A68FB681B6842F400425A60FB682C
:1018FC00202283F84120FB68002283F84220FB68F9
:10190C00002283F84020002300E0022318461837F9
:10191C00BD4680BD80B483B000AF78607B681B6827
:10192C009B6903F00203022B03D17B681B68002226
:10193C009A627B681B689B6903F00103012B07D03B
:10194C007B681B689A697B681B6842F001029A618C
:10195C0000BF0C37BD465DF8047B704780B584B082
:10196C0000AFF860B9603B601346FB713BE0BA69AD
:10197C003968F86800F062F90346002B01D00123A6
:10198C0041E03B68B3F1FF3F2DD0FFF7F7F902467A
:10199C00BB69D31A3A689A4202D33B68002B22D116
:1019AC00FB681B689A69BB681340BA689A420CBF03
:1019BC0001230023DBB21A46FB799A4213D1FB6850
:1019CC005B6C43F02002FB685A64FB68202283F8AE
:1019DC004120FB68002283F84220FB68002283F838
:1019EC00402001230FE0FB681B689A69BB68134019
:1019FC00BA689A420CBF01230023DBB21A46FB796A
:101A0C009A42B4D0002318461037BD4680BD80B52D
:101A1C0084B000AFF860B9607A6033E07A68B96876
:101A2C00F86800F00BF90346002B01D0012331E0DC
:101A3C00BB68B3F1FF3F25D0FFF7A0F902467B68E6
:101A4C00D31ABA689A4202D3BB68002B1AD1FB682E
:101A5C001B689B6903F00203022B13D0FB685B6CC1
:101A6C0043F02002FB685A64FB68202283F8412073
:101A7C00FB68002283F84220FB68002283F8402098
:101A8C00012307E0FB681B689B6903F00203022B30
:101A9C00C4D1002318461037BD4680BD80B584B034
:101AAC0000AFF860B9607A602FE07A68B968F868BE
:101ABC0000F0C4F80346002B01D001232DE0FFF702
:101ACC005DF902467B68D31ABA689A4202D3BB68A6
:101ADC00002B1AD1FB681B689B6903F02003202B99
:101AEC0013D0FB685B6C43F02002FB685A64FB6804
:101AFC00202283F84120FB68002283F84220FB68F7
:101B0C00002283F84020012307E0FB681B689B69D7
:101B1C0003F02003202BC8D1002318461037BD46F4
:101B2C0080BD000080B586B000AFF860B9607A6007
:101B3C000023FB7571E07A68B968F86800F07EF8EC
:101B4C000346002B01D00123FB75FB681B689B69C6
:101B5C0003F02003202B3BD1FB7D002B38D1FB68FD
:101B6C001B689B6903F00403042B05D1FB681B8DD8
:101B7C00002B01D00023FB75FB681B689B6903F0ED
:101B8C001003102B21D1FB681B681022DA61FB6853
:101B9C0004225A64FB681B682022DA61FB681B680C
:101BAC005968FB681A68244B0B405360FB68202271
:101BBC0083F84120FB68002283F84220FB68002256
:101BCC0083F840200123FB7502E0FB6800225A6475
:101BDC00FFF7D4F802467B68D31ABA689A4202D34C
:101BEC00BB68002B19D1FB7D002B16D1FB681B6841
:101BFC009B6903F00403042B0FD0FB685B6C43F070
:101C0C002002FB685A64FB68202283F84120FB68A1
:101C1C00002283F840200123FB75FB681B689B693D
:101C2C0003F00403042B02D0FB7D002B83D0FB7D3F
:101C3C0018461837BD4680BD00E800FE80B58AB056
:101C4C0000AFF860B9607A60002387F82730FB6832
:101C5C001B689B69BB6100233B627B68FB61BB69B2
:101C6C0003F01003002B68D0FB681B681022DA61AC
:101C7C0049E0BB68B3F1FF3F45D0FFF77FF8024660
:101C8C00FB69D31ABA689A4202D3BB68002B3AD1CB
:101C9C00FB681B685B6803F480437B61FB6893F80B
:101CAC004230FB74FB681B689B6903F40043B3F57B
:101CBC00004F21D17B69B3F5804F1DD0FB7C202BCD
:101CCC001AD0FB681B685A68FB681B6842F4804298
:101CDC005A60FFF753F8F8610EE0FFF74FF8024631
:101CEC00FB69D31A192B07D93B6A43F020033B62DB
:101CFC00012387F8273006E0FB681B689B6903F01B
:101D0C002003202BE9D1FB681B689B6903F020039F
:101D1C00202B03D097F82730002BAAD097F8273028
:101D2C00002B03D1FB681B682022DA613B6A43F06D
:101D3C0004033B62012387F82730FB681B689B690F
:101D4C00BB61BB6903F48073002B0BD03B6A43F07F
:101D5C0001033B62FB681B684FF48072DA6101235C
:101D6C0087F82730BB6903F48063002B0BD03B6AE8
:101D7C0043F008033B62FB681B684FF48062DA6136
:101D8C00012387F82730BB6903F40073002B0BD0B9
:101D9C003B6A43F002033B62FB681B684FF4007222
:101DAC00DA61012387F8273097F82730002B1CD0F5
:101DBC00F868FFF7AFFDFB681B685968FB681A6889
:101DCC000D4B0B405360FB685A6C3B6A1A43FB6823
:101DDC005A64FB68202283F84120FB68002283F8B8
:101DEC004220FB68002283F8402097F827301846E1
:101DFC002837BD4680BD00BF00E800FE80B483B02C
:101E0C0000AF786039607B6893F84130DBB2202BEF
:101E1C0038D17B6893F84030012B01D1022332E09A
:101E2C007B68012283F840207B68242283F84120C0
:101E3C007B681B681A687B681B6822F001021A60B9
:101E4C007B681B681A687B681B6822F480521A60D6
:101E5C007B681B6819687B681B683A680A431A60C0
:101E6C007B681B681A687B681B6842F001021A6069
:101E7C007B68202283F841207B68002283F8402075
:101E8C00002300E0022318460C37BD465DF8047BA6
:101E9C00704780B485B000AF786039607B6893F888
:101EAC004130DBB2202B39D17B6893F84030012BC9
:101EBC0001D1022333E07B68012283F840207B6848
:101ECC00242283F841207B681B681A687B681B6896
:101EDC0022F001021A607B681B681B68FB60FB68C0
:101EEC0023F47063FB603B681B02FA681343FB60CE
:101EFC007B681B68FA681A607B681B681A687B68C9
:101F0C001B6842F001021A607B68202283F8412092
:101F1C007B68002283F84020002300E0022318464F
:101F2C001437BD465DF8047B7047000080B400AFE9
:101F3C00054B1B68044A43F48073136000BFBD4615
:101F4C005DF8047B704700BF0004005880B400AFFC
:101F5C00044B1B6803F4C0631846BD465DF8047B54
:101F6C00704700BF0004005880B400AF4FF0B0437E
:101F7C001B6803F48013B3F5801F01D1012300E02B
:101F8C0000231846BD465DF8047B704780B400AF53
:101F9C004FF0B0431B684FF0B04243F480331360F2
:101FAC0000BFBD465DF8047B704780B400AF4FF0B6
:101FBC00B0431B684FF0B04223F48033136000BF72
:101FCC00BD465DF8047B704780B400AF4FF0B04362
:101FDC001B6803F40033B3F5003F01D1012300E08B
:101FEC0000231846BD465DF8047B704780B400AFF3
:101FFC004FF0B0431B684FF0B04243F48073136052
:10200C0000BFBD465DF8047B704780B400AF4FF055
:10201C00B0431B684FF0B04223F48073136000BFD1
:10202C00BD465DF8047B704780B400AF4FF0B04301
:10203C001B6803F48063B3F5806F01D1012300E0CA
:10204C0000231846BD465DF8047B704780B483B00E
:10205C0000AF78604FF0B0435B6823F0FE427B68C2
:10206C001B064FF0B04113434B6000BF0C37BD460D
:10207C005DF8047B704780B400AF4FF0B043D3F8E9
:10208C0098304FF0B04243F00103C2F8983000BFD3
:10209C00BD465DF8047B704780B400AF4FF0B04391
:1020AC00D3F898304FF0B04223F00103C2F89830C7
:1020BC0000BFBD465DF8047B704780B400AF4FF0A5
:1020CC00B043D3F8983003F00203022B01D1012363
:1020DC0000E000231846BD465DF8047B704780B4D1
:1020EC0000AF4FF0B043D3F890304FF0B04243F014
:1020FC000103C2F8903000BFBD465DF8047B704709
:10210C0080B400AF4FF0B043D3F890304FF0B042F2
:10211C0023F00103C2F8903000BFBD465DF8047B8C
:10212C00704780B400AF4FF0B043D3F890304FF00D
:10213C00B04243F00403C2F8903000BFBD465DF8D6
:10214C00047B704780B400AF4FF0B043D3F89030AD
:10215C004FF0B04223F00403C2F8903000BFBD46EC
:10216C005DF8047B704780B400AF4FF0B043D3F8F8
:10217C00903003F00203022B01D1012300E0002375
:10218C001846BD465DF8047B704780B400AF4FF035
:10219C00B043D3F894304FF0B04243F00103C2F88F
:1021AC00943000BFBD465DF8047B704780B400AF2F
:1021BC004FF0B043D3F894304FF0B04223F001030A
:1021CC00C2F8943000BFBD465DF8047B704780B404
:1021DC0000AF4FF0B043D3F8943003F00203022B5E
:1021EC0001D1012300E000231846BD465DF8047BB5
:1021FC00704780B400AF4FF0B043D3F894304FF039
:10220C00B04243F00403C2F8943000BFBD465DF801
:10221C00047B704780B400AF4FF0B043D3F89430D8
:10222C004FF0B04223F00403C2F8943000BFBD4617
:10223C005DF8047B704780B400AF4FF0B043D3F827
:10224C00943003F00803082B01D1012300E0002394
:10225C001846BD465DF8047B704780B483B000AF70
:10226C0078604FF0B043D3F8943023F470627B68FD
:10227C001B024FF0B0411343C1F8943000BF0C3730
:10228C00BD465DF8047B704780B400AF4FF0B0439F
:10229C001B684FF0B04243F00103136000BFBD4612
:1022AC005DF8047B704780B400AF4FF0B0431B68FF
:1022BC004FF0B04223F00103136000BFBD465DF840
:1022CC00047B704780B400AF4FF0B0431B6803F041
:1022DC000203022B01D1012300E000231846BD4666
:1022EC005DF8047B704780B483B000AF78604FF02A
:1022FC00B0431B6823F0F0024FF0B0417B681343EE
:10230C000B6000BF0C37BD465DF8047B704780B492
:10231C0083B000AF4FF0B0431B6803F0F0037B6059
:10232C007B68B02B01D9B0237B607B6818460C37D7
:10233C00BD465DF8047B704780B483B000AF786015
:10234C004FF0B0435B6823F47F427B681B024FF075
:10235C00B04113434B6000BF0C37BD465DF8047BA6
:10236C00704780B483B000AF78604FF0B0439B6887
:10237C0023F003024FF0B0417B6813438B6000BF26
:10238C000C37BD465DF8047B704780B400AF4FF04E
:10239C00B0439B6803F00C031846BD465DF8047B04
:1023AC00704780B483B000AF78604FF0B0439B6847
:1023BC0023F0F0024FF0B0417B6813438B6000BFF9
:1023CC000C37BD465DF8047B704780B483B000AF1A
:1023DC0078604FF0B043D3F8083123F0F0024FF09F
:1023EC00B0417B681343C1F8083100BF0C37BD46C0
:1023FC005DF8047B704780B483B000AF78604FF019
:10240C00B043D3F8083123F00F027B681B094FF05F
:10241C00B0411343C1F8083100BF0C37BD465DF81D
:10242C00047B704780B483B000AF78604FF0B0434A
:10243C009B6823F4E0624FF0B0417B6813438B60E0
:10244C0000BF0C37BD465DF8047B704780B483B089
:10245C0000AF78604FF0B0439B6823F460524FF0AC
:10246C00B0417B6813438B6000BF0C37BD465DF8F1
:10247C00047B704780B400AF4FF0B0439B6803F00F
:10248C00F0031846BD465DF8047B704780B400AF7E
:10249C004FF0B043D3F808311B0103F0F00318469A
:1024AC00BD465DF8047B704780B400AF4FF0B0437D
:1024BC009B6803F4E0631846BD465DF8047B7047E7
:1024CC0080B400AF4FF0B0439B6803F460531846E0
:1024DC00BD465DF8047B704780B400AF4FF0B0434D
:1024EC001B684FF0B04243F08073136000BFBD46D1
:1024FC005DF8047B704780B400AF4FF0B0431B68AD
:10250C004FF0B04223F08073136000BFBD465DF8FE
:10251C00047B704780B400AF4FF0B0431B6803F0EE
:10252C000073B3F1007F01D1012300E000231846B2
:10253C00BD465DF8047B704780B400AF4FF0B043EC
:10254C00DB681B0A03F07F031846BD465DF8047B6D
:10255C00704780B400AF4FF0B043DB6803F06043CA
:10256C001846BD465DF8047B704780B400AF4FF051
:10257C00B043DB6803F070031846BD465DF8047B7E
:10258C00704780B400AF4FF0B043DB6803F0030337
:10259C001846BD465DF8047B704780B400AF4FF021
:1025AC00B0439B6803F48033B3F5803F01D1012322
:1025BC0000E000231846BD465DF8047B704780B4EC
:1025CC0000AF4FF0B043D3F8083103F40033B3F548
:1025DC00003F01D1012300E000231846BD465DF801
:1025EC00047B704780B400AF4FF0B043D3F8083190
:1025FC0003F48033B3F5803F01D1012300E00023C5
:10260C001846BD465DF8047B704780B400AF4FF0B0
:10261C00B0439B6803F40033B3F5003F01D10123B1
:10262C0000E000231846BD465DF8047B704780B47B
:10263C0000AF4FF0B0439B6803F48023B3F5802FB9
:10264C0001D1012300E000231846BD465DF8047B50
:10265C007047000090B58DB000AF78607B68002BA0
:10266C0001D1012363E37B681B6803F02003002B7B
:10267C0000F08D80FFF789FEF862FFF782FFB862E9
:10268C00FB6A002B05D0FB6A0C2B47D1BB6A012BD4
:10269C0044D17B68DB69002B01D1012347E37B68C4
:1026AC005C6AFFF734FE03469C4214D97B685B6A74
:1026BC00184600F02FFD0346002B01D0012336E312
:1026CC007B685B6A1846FFF70EFE7B681B6A184630
:1026DC00FFF732FE13E07B685B6A1846FFF703FED8
:1026EC007B681B6A1846FFF727FE7B685B6A1846F7
:1026FC0000F010FD0346002B01D0012317E300F07E
:10270C00C9FC0346A44A1360A44B1B681846FEF789
:10271C00E7FA0346002B39D0012308E37B68DB6919
:10272C00002B1ED0FFF7B0FDFEF728FB786208E007
:10273C00FEF724FB02467B6AD31A022B01D9032332
:10274C00F5E2FFF7BFFD0346002BF1D07B685B6A17
:10275C001846FFF7C8FD7B681B6A1846FFF7ECFDAF
:10276C0015E0FFF7A0FDFEF709FB786208E0FEF725
:10277C0005FB02467B6AD31A022B01D90323D6E24E
:10278C00FFF7A0FD0346002BF1D100E000BF7B68F2
:10279C001B6803F00103002B47D0FFF7F6FD3862EE
:1027AC00FFF7EFFEF8613B6A082B05D03B6A0C2B58
:1027BC0008D1FB69032B05D17B685B68002B34D1F6
:1027CC000123B4E27B685B68B3F5803F02D1FFF76D
:1027DC00DDFB01E0FFF7E9FB7B685B68002B12D0A7
:1027EC00FEF7CCFA786208E0FEF7C8FA02467B6A7C
:1027FC00D31A642B01D9032399E2FFF7E5FB0346B7
:10280C00002BF1D011E0FEF7B9FA786208E0FEF780
:10281C00B5FA02467B6AD31A642B01D9032386E2EC
:10282C00FFF7D2FB0346002BF1D17B681B6803F04A
:10283C000203002B4CD0FFF7A8FDB861FFF7A1FEF7
:10284C007861BB69042B05D0BB690C2B0ED17B695D
:10285C00022B0BD17B68DB68002B01D1012366E2D4
:10286C007B681B691846FFF7F1FB31E07B68DB687E
:10287C00002B19D0FFF7BAFBFEF780FA786208E05C
:10288C00FEF77CFA02467B6AD31A022B01D903238A
:10289C004DE2FFF7C9FB0346002BF1D07B681B69A7
:1028AC001846FFF7D3FB13E0FFF7AFFBFEF766FA12
:1028BC00786208E0FEF762FA02467B6AD31A022BB2
:1028CC0001D9032333E2FFF7AFFB0346002BF1D111
:1028DC007B681B6803F00803002B06D17B681B6820
:1028EC0003F01003002B00F0A3807B685B69002BC6
:1028FC0076D07B681B6803F01003002B46D0FFF7E3
:10290C0066FC0346002B13D1FFF73FFCFEF736FAAB
:10291C00786208E0FEF732FA02467B6AD31A022B81
:10292C0001D9032303E2FFF752FC0346002BF1D03D
:10293C00FFF75FFCFEF722FA786208E0FEF71EFA5A
:10294C0002467B6AD31A032B01D90323EFE1FFF76D
:10295C0072FC0346002BF1D07B689B691846FFF78D
:10296C007CFCFFF723FCFEF709FA786208E0FEF71F
:10297C0005FA02467B6AD31A022B01D90323D6E14E
:10298C00FFF725FC0346002BF1D151E0FFF7FDFBCF
:10299C00FEF7F4F978620CE0080000202800002013
:1029AC00FEF7ECF902467B6AD31A022B01D90323FA
:1029BC00BDE1FFF70CFC0346002BF1D0FFF72AFC1E
:1029CC0008E0FEF7DBF902467B6AD31A032B01D928
:1029DC000323ACE1FFF72FFC0346002BF1D127E0DA
:1029EC00FFF718FCFEF7CAF9786208E0FEF7C6F9A3
:1029FC0002467B6AD31A032B01D9032397E1FFF715
:102A0C001AFC0346002BF1D1FFF7D0FBFEF7B6F909
:102A1C00786208E0FEF7B2F902467B6AD31A022B01
:102A2C0001D9032383E1FFF7D2FB0346002BF1D13D
:102A3C007B681B6803F00403002B5BD0A74B1B685F
:102A4C0003F48073002B14D1FFF770FAFEF796F99C
:102A5C00786208E0FEF792F902467B6AD31A022BE1
:102A6C0001D9032363E19D4B1B6803F48073002B96
:102A7C00F0D07B689B68012B02D1FFF730FB0CE098
:102A8C007B689B68052B04D1FFF74BFBFFF727FBFB
:102A9C0003E0FFF735FBFFF755FB7B689B68002BCA
:102AAC0014D0FEF76BF978620AE0FEF767F902467C
:102ABC007B6AD31A41F28832934201D9032336E15F
:102ACC00FFF751FB0346002BEFD013E0FEF756F94E
:102ADC0078620AE0FEF752F902467B6AD31A41F299
:102AEC008832934201D9032321E1FFF73CFB0346D3
:102AFC00002BEFD17B681B6803F04003002B2CD01C
:102B0C007B689B6A002B14D0FFF7B5FAFEF736F9F9
:102B1C00786208E0FEF732F902467B6AD31A022B80
:102B2C0001D9032303E1FFF7C8FA0346002BF1D0C8
:102B3C0013E0FFF7B1FAFEF721F9786208E0FEF72F
:102B4C001DF902467B6AD31A022B01D90323EEE04E
:102B5C00FFF7B3FA0346002BF1D17B68DB6A002B3D
:102B6C0000F0E480FFF711FC38614FF0B043DB68F4
:102B7C00FB607B68DB6A022B40F0B480FB6803F0DF
:102B8C0003027B681B6B9A4223D1FB6803F0700233
:102B9C007B685B6B9A421CD1FB681B0A03F07F02BB
:102BAC007B689B6B9A4214D1FB6803F478127B68A8
:102BBC00DB6B9A420DD1FB6803F060627B681B6C87
:102BCC009A4206D1FB6803F060427B685B6C9A42C8
:102BDC005DD03B690C2B58D04FF0B0431B6803F011
:102BEC008063002B01D00123A1E0FFF784FCFEF7EA
:102BFC00C5F8786208E0FEF7C1F802467B6AD31A82
:102C0C00022B01D9032392E04FF0B0431B6803F071
:102C1C000073002BEFD14FF0B043DA68304B134008
:102C2C007A68116B7A68526B11437A68926B120254
:102C3C0011437A68D26B11437A68126C11437A682B
:102C4C00526C0A434FF0B0411343CB60FFF744FC86
:102C5C004FF0B043DB684FF0B04243F08053D36089
:102C6C00FEF78CF8786208E0FEF788F802467B6A7B
:102C7C00D31A022B01D9032359E04FF0B0431B6840
:102C8C0003F00073002BEFD050E001234FE04FF026
:102C9C00B0431B6803F00073002B47D1FFF71CFCFB
:102CAC004FF0B043DB684FF0B04243F08053D36039
:102CBC00FEF764F8786208E0FEF760F802467B6A7B
:102CCC00D31A022B01D9032331E04FF0B0431B6818
:102CDC0003F00073002BEFD028E000BF0004005875
:102CEC008C80C1113B690C2B1ED0FFF704FCFEF746
:102CFC0045F8786208E0FEF741F802467B6AD31A81
:102D0C00022B01D9032312E04FF0B0431B6803F0F0
:102D1C000073002BEFD14FF0B043DA684FF0B041A5
:102D2C00054B1340CB6001E0012300E00023184663
:102D3C003437BD4690BD00BFFCFFFEEE80B584B0BD
:102D4C0000AF786039607B68002B01D101232DE145
:102D5C00984B1B6803F007033A689A421BD9954BB2
:102D6C001B6823F0070293493B6813430B60FEF783
:102D7C0005F8F86008E0FEF701F80246FB68D31A84
:102D8C00022B01D9032311E18A4B1B6803F00703C3
:102D9C003A689A42EFD17B681B6803F00203002B60
:102DAC0016D07B689B681846FFF7FBFAFDF7E6FF29
:102DBC00F86008E0FDF7E2FF0246FB68D31A022B2D
:102DCC0001D90323F2E0FFF7E8FB0346002BF1D017
:102DDC007B681B6803F02003002B16D07B685B69B3
:102DEC001846FFF7F2FAFDF7C9FFF86008E0FDF7A7
:102DFC00C5FF0246FB68D31A022B01D90323D5E089
:102E0C00FFF7DDFB0346002BF1D07B681B6803F05A
:102E1C004003002B16D07B689B691846FFF7EBFA32
:102E2C00FDF7ACFFF86008E0FDF7A8FF0246FB6871
:102E3C00D31A022B01D90323B8E0FFF7D3FB0346C7
:102E4C00002BF1D07B681B6803F00403002B16D019
:102E5C007B68DB681846FFF7E5FAFDF78FFFF86033
:102E6C0008E0FDF78BFF0246FB68D31A022B01D951
:102E7C0003239BE0FFF7C9FB0346002BF1D07B68D3
:102E8C001B6803F00803002B17D07B681B69DB0061
:102E9C001846FFF7DBFAFDF771FFF86008E0FDF765
:102EAC006DFF0246FB68D31A022B01D903237DE088
:102EBC00FFF7BDFB0346002BF1D07B681B6803F0CA
:102ECC000103002B43D07B685B68022B06D1FFF714
:102EDC007BF80346002B1ED1012367E07B685B68FF
:102EEC00032B06D1FFF716FB0346002B13D101234E
:102EFC005CE07B685B68002B06D1FFF7E3F90346C7
:102F0C00002B08D1012351E0FFF78EF80346002B6C
:102F1C0001D101234AE07B685B681846FFF721FA70
:102F2C00FDF72CFFF8600AE0FDF728FF0246FB686E
:102F3C00D31A41F28832934201D9032336E0FFF7CA
:102F4C0024FA02467B685B689B009A42ECD1194BD1
:102F5C001B6803F007033A689A421BD2154B1B6897
:102F6C0023F0070213493B6813430B60FDF706FF80
:102F7C00F86008E0FDF702FF0246FB68D31A022B4B
:102F8C0001D9032312E00B4B1B6803F007033A68CB
:102F9C009A42EFD100F07EF80346074A1360FDF722
:102FAC00F9FE03461846FDF79BFE034618461037FC
:102FBC00BD4680BD004000580800002090B585B08B
:102FCC0000AFFFF7E2F978607B68002B0AD1FFF7BE
:102FDC009EF903461B0903F00F032B4A52F82330CA
:102FEC00FB604BE07B68042B02D1284BFB6045E077
:102FFC007B68082B0AD1FEF7B7FF0346012B02D1E1
:10300C00224BFB603AE0224BFB6037E0FFF7B9FA4A
:10301C0038603B68022B03D03B68032B03D00DE0D8
:10302C001A4BBB6015E0FEF79FFF0346012B02D144
:10303C00164BBB600DE0164BBB600AE0FFF767F95F
:10304C0003461B0903F00F030F4A52F82330BB60F1
:10305C0000BFFFF771FA0246BB6803FB02F4FFF7EF
:10306C0084FA03461B090133B4FBF3F4FFF771FA3E
:10307C0003465B0F0133B4FBF3F3FB60FB681846AC
:10308C001437BD4690BD00BF504500080024F40025
:10309C000048E80198B500AFFFF790FF0446FFF732
:1030AC00E9F903461B0903F00F03034A52F82330D6
:1030BC00B4FBF3F3184698BDF044000898B500AF84
:1030CC00FFF7E8FF0446FFF7EFF903461B0A03F08E
:1030DC000703044A52F8233003F01F0324FA03F3C6
:1030EC00184698BD3045000898B500AFFFF7D2FFE1
:1030FC000446FFF7E5F90346DB0A03F00703044A2D
:10310C0052F8233003F01F0324FA03F3184698BD3A
:10311C003045000890B585B000AF78607B68B02B67
:10312C0003D9154BDB6AFB6007E07B681B0903F0D6
:10313C000F03114A52F82330FB60FFF7A7F903463F
:10314C001B0903F00F030D4A52F82330FA68B2FB47
:10315C00F3F3BB60BB680A4AA2FB03239C0CFEF78B
:10316C00F5FE03461946204600F00CF803461846B7
:10317C001437BD4690BD00BF50450008F044000810
:10318C0083DE1B4390B593B000AF78603960374B4A
:10319C0007F128040FCB84E80F00354A07F11C0314
:1031AC0007CA83E80700334B07F10C040FCB84E804
:1031BC000F0000237B643B68B3F5007F1AD100231A
:1031CC003B6413E03B6C9B0048333B4453F8203C7E
:1031DC007A689A4207D83B6C9B0048333B4453F8BF
:1031EC003C3C7B6420E03B6C01333B643B6C032B2D
:1031FC00E8D919E00023FB6313E0FB6B9B00483319
:10320C003B4453F82C3C7A689A4207D8FB6B9B00E2
:10321C0048333B4453F83C3C7B6405E0FB6B013387
:10322C00FB63FB6B022BE8D9134B1B6823F00702E3
:10323C0011497B6C13430B60FDF7A0FDB86308E0EC
:10324C00FDF79CFD0246BB6BD31A022B01D903235D
:10325C0007E0094B1B6803F007037A6C9A42EFD125
:10326C00002318464C37BD4690BD00BFC44400082F
:10327C00D4440008E04400080040005880B400AF7B
:10328C004FF0B043D3F8903003F00103012B01D180
:10329C00012300E000231846BD465DF8047B70470F
:1032AC0080B400AF4FF0B043D3F8903003F002037A
:1032BC00022B01D1012300E000231846BD465DF826
:1032CC00047B704780B483B000AF78604FF0B0439C
:1032DC00D3F8943023F440424FF0B0417B68134351
:1032EC00C1F8943000BF0C37BD465DF8047B7047C5
:1032FC0080B483B000AF78604FF0B0435B6A23F0CA
:10330C0003024FF0B0417B6813434B6200BF0C3794
:10331C00BD465DF8047B704780B483B000AF786025
:10332C004FF0B0435B6A23F030024FF0B0417B6842
:10333C0013434B6200BF0C37BD465DF8047B7047EE
:10334C0080B483B000AF78604FF0B043D3F88830CE
:10335C0023F003024FF0B0417B681343C1F888306F
:10336C0000BF0C37BD465DF8047B704780B483B05A
:10337C0000AF78604FF0B043D3F8883023F440624C
:10338C004FF0B0417B681343C1F8883000BF0C3755
:10339C00BD465DF8047B704780B483B000AF7860A5
:1033AC004FF0B043D3F888207B681B0903F47F23CC
:1033BC00DB431A407B681B0103F47F234FF0B041C1
:1033CC001343C1F8883000BF0C37BD465DF8047B51
:1033DC00704780B483B000AF78604FF0B043D3F83F
:1033EC0088207B681B0C1B04DB431A407B681B0486
:1033FC004FF0B0411343C1F8883000BF0C37BD46C5
:10340C005DF8047B704780B483B000AF78604FF0F8
:10341C00B043D3F8883023F440024FF0B0417B68BE
:10342C001343C1F8883000BF0C37BD465DF8047BF0
:10343C00704780B483B000AF78604FF0B043D3F8DE
:10344C00883023F040424FF0B0417B681343C1F801
:10345C00883000BF0C37BD465DF8047B704780B4E4
:10346C0083B000AF78604FF0B043D3F8883023F0CE
:10347C0040624FF0B0417B681343C1F8883000BF05
:10348C000C37BD465DF8047B704780B582B000AF49
:10349C0078607868FFF7E3FF00BF0837BD4680BD52
:1034AC0080B483B000AF78604FF0B043D3F888306D
:1034BC0023F040524FF0B0417B681343C1F8883081
:1034CC0000BF0C37BD465DF8047B704780B483B0F9
:1034DC0000AF78604FF0B043D3F8903023F44072D3
:1034EC004FF0B0417B681343C1F8903000BF0C37EC
:1034FC00BD465DF8047B704780B400AF4FF0B0431D
:10350C00D3F8903003F440731846BD465DF8047B45
:10351C00704780B400AF4FF0B043D3F890304FF009
:10352C00B04243F48033C2F8903000BFBD465DF822
:10353C00047B704780B400AF4FF0B043D3F89030A9
:10354C004FF0B04223F48033C2F8903000BFBD4638
:10355C005DF8047B704780B400AF4FF0B0431B683C
:10356C004FF0B04243F08063136000BFBD465DF87E
:10357C00047B704780B400AF4FF0B0431B684FF032
:10358C00B04223F08063136000BFBD465DF8047B3E
:10359C00704780B400AF4FF0B0431B6803F000637A
:1035AC00B3F1006F01D1012300E000231846BD46A2
:1035BC005DF8047B704780B588B000AF786000235D
:1035CC00FB770023BB777B681B6803F04003002B61
:1035DC0034D07B681B6BB3F5400F21D0B3F5400F93
:1035EC001BD8B3F5000F1DD0B3F5000F15D8002B69
:1035FC000BD0B3F5800F10D14FF0B043DB684FF018
:10360C00B04243F48033D3600DE07B68043318463A
:10361C0000F047F90346FB7705E00123FB7702E056
:10362C0000BF00E000BFFB7F002B05D17B681B6B4C
:10363C001846FFF7E8FE01E0FB7FBB777B681B6851
:10364C0003F40063002B46D0FFF756FFB8617B688C
:10365C001B6CBA699A423CD0FEF768FCBB69002B24
:10366C0005D17B681B6C1846FFF730FF2EE04FF03E
:10367C00B043D3F890307B61FFF74BFFFFF75AFF55
:10368C007B6923F440727B681B6C13437B614FF0A6
:10369C00B0427B69C2F89030FFF7F0FD0346012B76
:1036AC0014D1FDF76BFB38610BE0FDF767FB0246AD
:1036BC003B69D31A41F28832934202D90323FB7738
:1036CC0004E0FFF7EDFD0346012BEED1FB7FBB774A
:1036DC0001E0FB7FBB777B681B6803F00103002BC9
:1036EC0004D07B689B691846FFF72AFE7B681B6831
:1036FC0003F00203002B04D07B68DB691846FFF74C
:10370C0035FE7B681B6803F01003002B04D07B682C
:10371C009B6A1846FFF75DFE7B681B6803F020036D
:10372C00002B04D07B68DB6A1846FFF752FE7B68DF
:10373C001B6803F00403002B04D07B681B6A18463B
:10374C00FFF72AFE7B681B6803F00803002B04D0EC
:10375C007B685B6A1846FFF71FFE7B681B6803F4E7
:10376C008073002B22D07B685B6B1846FFF78DFEB5
:10377C007B685B6BB3F1006F07D14FF0B043DB6834
:10378C004FF0B04243F08073D3607B685B6BB3F156
:10379C00806F0BD17B680433184600F0DDF80346CC
:1037AC00FB77FB7F002B01D0FB7FBB777B681B6813
:1037BC0003F40073002B2BD07B689B6BB3F1804F11
:1037CC0008D07B689B6BB3F1004F03D07B689B6B7D
:1037DC00002B05D17B689B6B1846FFF72AFE0AE08D
:1037EC007B689B6B23F08053FB600020FFF721FE6E
:1037FC00F868FFF734FE7B689B6BB3F1C05F07D1B1
:10380C004FF0B043DB684FF0B04243F08073D360AD
:10381C007B681B6803F48063002B22D07B68DB6B16
:10382C001846FFF73DFE7B68DB6BB3F1005F07D1F9
:10383C004FF0B043DB684FF0B04243F48033D360B9
:10384C007B68DB6BB3F1805F0BD17B68043318466C
:10385C0000F0DDF80346FB77FB7F002B01D0FB7FEC
:10386C00BB777B681B6803F48053002B04D07B6808
:10387C005B6C1846FFF726FD7B681B6803F400534E
:10388C00002B09D07B68DB6C1846FFF745FD7B6885
:10389C009B6C1846FFF72CFDBB7F18462037BD46A6
:1038AC0080BD80B584B000AF78600023FB73FFF758
:1038BC0061FEFDF763FAB86009E0FDF75FFA0246B6
:1038CC00BB68D31A022B02D90323FB7304E0FFF766
:1038DC0060FE0346002BF0D1FB7B002B37D14FF061
:1038EC00B0431B6923F4FE427B681B681B024FF03C
:1038FC00B04113430B614FF0B0431B6923F47812B2
:10390C007B685B684FF0B04113430B61FFF723FEFC
:10391C00FDF734FAB86009E0FDF730FA0246BB68EF
:10392C00D31A022B02D90323FB7304E0FFF731FEF9
:10393C000346012BF0D1FB7B002B08D14FF0B04399
:10394C001A697B681B694FF0B04113430B61FB7B19
:10395C0018461037BD4680BD80B584B000AF786086
:10396C000023FB73FFF706FEFDF708FAB86009E0C9
:10397C00FDF704FA0246BB68D31A022B02D90323C3
:10398C00FB7304E0FFF705FE0346002BF0D1FB7B35
:10399C00002B37D14FF0B0431B6923F4FE427B68F8
:1039AC001B681B024FF0B04113430B614FF0B04347
:1039BC001B6923F060627B689B684FF0B041134336
:1039CC000B61FFF7C8FDFDF7D9F9B86009E0FDF709
:1039DC00D5F90246BB68D31A022B02D90323FB7319
:1039EC0004E0FFF7D6FD0346012BF0D1FB7B002B47
:1039FC0008D14FF0B0431A697B681B694FF0B04196
:103A0C0013430B61FB7B18461037BD4680BD80B558
:103A1C0084B000AF78600023FB73FFF7ABFDFDF7BC
:103A2C00ADF9B86009E0FDF7A9F90246BB68D31AF5
:103A3C00022B02D90323FB7304E0FFF7AAFD034614
:103A4C00002BF0D1FB7B002B37D14FF0B0431B691F
:103A5C0023F4FE427B681B681B024FF0B0411343FA
:103A6C000B614FF0B0431B6923F060427B68DB684D
:103A7C004FF0B04113430B61FFF76DFDFDF77EF97D
:103A8C00B86009E0FDF77AF90246BB68D31A022B3D
:103A9C0002D90323FB7304E0FFF77BFD0346012BE4
:103AAC00F0D1FB7B002B08D14FF0B0431A697B6837
:103ABC001B694FF0B04113430B61FB7B1846103769
:103ACC00BD4680BD80B483B000AF78604FF0B0438A
:103ADC00D3F888207B68134018460C37BD465DF838
:103AEC00047B704780B483B000AF78604FF0B04374
:103AFC00D3F888207B68134018460C37BD465DF818
:103B0C00047B704780B582B000AF78607B68002B77
:103B1C0001D1012342E07B68D3F88830002B06D119
:103B2C007B68002283F88420786800F03BF87B687F
:103B3C002422C3F888207B681B681A687B681B6882
:103B4C0022F001021A607B689B6A002B02D0786815
:103B5C0000F05AFA786800F02FF80346012B01D1D7
:103B6C0001231BE07B681B685A687B681B6822F486
:103B7C0090425A607B681B689A687B681B6822F0CD
:103B8C002A029A607B681B681A687B681B6842F083
:103B9C0001021A60786800F0D9FA03461846083713
:103BAC00BD4680BD80B483B000AF786000BF0C37D9
:103BBC00BD465DF8047B70472DE9B04F8CB000AF6B
:103BCC007861002387F82A307B699A687B691B69C6
:103BDC001A437B695B691A437B69DB691343FB629C
:103BEC007B691B681A68AF4B13407A691268F96AD3
:103BFC000B4313607B691B685B6823F440517B6942
:103C0C00DA687B691B680A435A607B699B69FB62B3
:103C1C007B691B68A44A934204D07B691B6AFA6ACD
:103C2C001343FB627B691B689B6823F06E4323F490
:103C3C0030637A691268F96A0B4393607B691B687D
:103C4C00DB6A23F00F017B695A6A7B691B680A43A4
:103C5C00DA627B691B68954A934225D10320FFF7F2
:103C6C0031FF0346032B1BD801A252F823F000BFEF
:103C7C008D3C00089D3C0008953C0008A53C0008C4
:103C8C00012387F82B3042E0022387F82B303EE0EB
:103C9C00042387F82B303AE0082387F82B3036E0E2
:103CAC00102387F82B3032E07B691B687E4A9342E5
:103CBC002AD14FF44060FFF715FF0346B3F5406F70
:103CCC001AD0B3F5406F1BD8B3F5006F0CD0B3F519
:103CDC00006F15D8002B03D0B3F5806F08D00FE020
:103CEC00002387F82B3012E0022387F82B300EE0EC
:103CFC00042387F82B300AE0082387F82B3006E0E2
:103D0C00102387F82B3002E0102387F82B307B69C7
:103D1C001B68654A934240F0978097F82B30082B2C
:103D2C0023D801A252F823F0593D0008773D000832
:103D3C00613D0008773D0008673D0008773D0008AD
:103D4C00773D0008773D00086F3D0008FFF7B6F996
:103D5C00786210E0564B7B620DE0FFF72FF978622A
:103D6C0009E04FF400437B6205E000237B620123F2
:103D7C0087F82A3000BF7B6A002B00F02B817B690F
:103D8C005B6A4C4A32F813301A467B6AB3FBF2F387
:103D9C00BB617B695A6813465B001344BA699A424B
:103DAC0005D37B695B681B03BA699A4203D901236B
:103DBC0087F82A300EE17B6A0022BB60FA607B69CF
:103DCC005B6A3C4A32F813309BB200223B607A604B
:103DDC00D7E90023D7E90201FCF7CAF902460B46E2
:103DEC00104619464FF000024FF000030B0243EA55
:103DFC001063020279694968490800200C4605469F
:103E0C0012EB040843EB05097B695B6800229A46B8
:103E1C00934652465B4640464946FCF7A9F9024692
:103E2C000B4613463B623B6AB3F5407F08D33B6AB3
:103E3C00B3F5801F04D27B691B683A6ADA60C9E06B
:103E4C00012387F82A30C5E07B69DB69B3F5004FA5
:103E5C006DD197F82B30013B072B2DD801A252F8CE
:103E6C0023F000BF913E0008993E0008C53E0008B3
:103E7C009F3E0008C53E0008C53E0008C53E000830
:103E8C00A73E0008FFF730F978621BE0084B7B6215
:103E9C0018E0FFF793F8786214E04FF400437B626C
:103EAC0010E000BFF369FFCF0080004000380140F4
:103EBC000024F400A445000800237B62012387F84A
:103ECC002A3000BF7B6A002B00F084807B695B6A20
:103EDC004B4A32F813301A467B6AB3FBF2F35A00A2
:103EEC007B695B685B081A447B695B68B2FBF3F324
:103EFC003B623B6A0F2B16D93B6AB3F5803F12D25B
:103F0C003B6A9BB223F00F03FB833B6A5B089BB2BB
:103F1C0003F007039AB2FB8B1343FB837B691B688B
:103F2C00FA8BDA6056E0012387F82A3052E097F8D2
:103F3C002B30013B072B22D801A252F823F000BFF3
:103F4C006D3F0008753F00088B3F00087B3F000861
:103F5C008B3F00088B3F00088B3F0008833F000815
:103F6C00FFF7C2F8786210E0264B7B620DE0FFF79A
:103F7C0025F8786209E04FF400437B6205E00023EA
:103F8C007B62012387F82A3000BF7B6A002B21D08B
:103F9C007B695B6A1A4A32F813301A467B6AB3FBA8
:103FAC00F2F27B695B685B081A447B695B68B2FB65
:103FBC00F3F33B623B6A0F2B09D93B6AB3F5803FA5
:103FCC0005D23B6A9AB27B691B68DA6002E0012376
:103FDC0087F82A307B690122A3F86A207B690122C9
:103FEC00A3F868207B6900225A677B6900229A67D4
:103FFC0097F82A3018463037BD46BDE8B08F00BF61
:10400C00A44500080024F40080B483B000AF7860AD
:10401C007B689B6A03F00803002B0AD07B681B6843
:10402C005B6823F400417B689A6B7B681B680A43CE
:10403C005A607B689B6A03F00103002B0AD07B68F3
:10404C001B685B6823F400317B68DA6A7B681B6849
:10405C000A435A607B689B6A03F00203002B0AD068
:10406C007B681B685B6823F480317B681A6B7B6808
:10407C001B680A435A607B689B6A03F00403002B9D
:10408C000AD07B681B685B6823F480217B685A6BC1
:10409C007B681B680A435A607B689B6A03F01003B9
:1040AC00002B0AD07B681B689B6823F480517B68CB
:1040BC00DA6B7B681B680A439A607B689B6A03F027
:1040CC002003002B0AD07B681B689B6823F40051EB
:1040DC007B681A6C7B681B680A439A607B689B6AD6
:1040EC0003F04003002B1AD07B681B685B6823F439
:1040FC0080117B685A6C7B681B680A435A607B682A
:10410C005B6CB3F5801F0AD17B681B685B6823F47A
:10411C00C0017B689A6C7B681B680A435A607B6899
:10412C009B6A03F08003002B0AD07B681B685B68DA
:10413C0023F400217B68DA6C7B681B680A435A60A5
:10414C0000BF0C37BD465DF8047B704780B598B056
:10415C0002AF78607B680022C3F89020FCF70EFE5B
:10416C0078657B681B681B6803F00803082B2FD14C
:10417C006FF07E4300937B6D00224FF40011786842
:10418C0000F08EF80346002B22D07B681B68BB63C3
:10419C00BB6B53E8003F7B637B6B23F080033B6579
:1041AC007B681B681A463B6D7B643A64396C7A6C8D
:1041BC0041E80023FB63FB6B002BE6D17B682022DC
:1041CC00C3F888207B68002283F88420032363E0F3
:1041DC007B681B681B6803F00403042B49D16FF048
:1041EC007E4300937B6D00224FF48001786800F0D1
:1041FC0057F80346002B3CD07B681B687B627B6ABC
:10420C0053E8003F3B623B6A23F49073FB647B688A
:10421C001B681A46FB6C3B63FA62F96A3A6B41E81D
:10422C000023BB62BB6A002BE6D17B681B6808339A
:10423C003B613B6953E8003FFB60FB6823F00103E3
:10424C00BB647B681B680833BA6CFA61BB61B969E3
:10425C00FA6941E800237B617B69002BE5D17B681F
:10426C002022C3F88C207B68002283F8842003234F
:10427C0012E07B682022C3F888207B682022C3F8D8
:10428C008C207B680022DA667B6800221A677B68C8
:10429C00002283F88420002318465837BD4680BD81
:1042AC0080B584B000AFF860B9603B601346FB7119
:1042BC004FE0BB69B3F1FF3F4BD0FCF75FFD02460B
:1042CC003B68D31ABA699A4202D3BB69002B01D15D
:1042DC0003234EE0FB681B681B6803F00403002BF0
:1042EC0037D0BB68802B34D0BB68402B31D0FB68F7
:1042FC001B68DB6903F00803082B10D1FB681B68F3
:10430C0008221A62F86800F038F8FB680822C3F833
:10431C009020FB68002283F88420012329E0FB68AD
:10432C001B68DB6903F40063B3F5006F11D1FB6804
:10433C001B684FF400621A62F86800F01EF8FB6804
:10434C002022C3F89020FB68002283F884200323EA
:10435C000FE0FB681B68DA69BB681340BA689A42C5
:10436C000CBF01230023DBB21A46FB799A42A0D082
:10437C00002318461037BD4680BD80B495B000AF01
:10438C0078607B681B687B637B6B53E8003F3B6307
:10439C003B6B23F49073FB647B681B681A46FB6CC5
:1043AC003B64FA63F96B3A6C41E80023BB63BB6B6B
:1043BC00002BE6D17B681B6808333B623B6A53E8F1
:1043CC00003FFB61FB6923F0805323F00103BB64C6
:1043DC007B681B680833BA6CFA62BB62B96AFA6A0A
:1043EC0041E800237B627B6A002BE3D17B68DB6EA8
:1043FC00012B18D17B681B68FB60FB6853E8003FFE
:10440C00BB60BB6823F010037B647B681B681A4697
:10441C007B6CBB617A617969BA6941E800233B61C5
:10442C003B69002BE6D17B682022C3F88C207B688B
:10443C000022DA667B6800225A6700BF5437BD46FB
:10444C005DF8047B704702440346934200D17047E9
:10445C0003F8011BF9E7000070B50D4D0D4C641B02
:10446C00A4100026A64209D10B4D0C4C00F018F8F4
:10447C00641BA4100026A64205D170BD55F8043B60
:10448C0098470136EEE755F8043B98470136F2E7BA
:10449C00C4450008C4450008C4450008C8450008C8
:1044AC00F8B500BFF8BC08BC9E467047F8B500BF15
:0844BC00F8BC08BC9E467047E5
:1044C400120000002400000036000000400000003C
:1044D400060000000C0000001000000000000000B6
:1044E40001000000020000000300000001000000C1
:1044F40003000000050000000100000001000000AE
:10450400060000000A000000200000000200000075
:10451400040000000800000010000000400000003B
:104524008000000000010000000200000000000004
:104534000000000000000000000000000100000076
:10454400020000000300000004000000A086010037
:10455400400D0300801A060000350C0040420F0095
:1045640080841E0000093D0000127A000024F4003B
:1045740000366E010048E801006CDC020000000017
:104584000000000000000000000000002000010006
:104594000200000010000100020000000A060700EB
:1045A400010002000400060008000A000C001000CC
:0845B40020004000800000011E
:0845BC00F0BBFF7F01000000CD
:0445C4006101000889
:0445C8003D010008A9
:1045CC0000093D00000400480004004800040048B5
:1045DC0000080048000C0048000C0048003801405E
:0845EC001000000001000000B6
:040000050800097571
:00000001FF
